S02B00006D796F2D636F72652D6170706C69636174696F6E2D5245565F442D6E6F2D636865636B73756D2E680B
S224010000000001206D22010081FE010097FE010097FE010097FE010097FE010097FE0100BB
S22401002097FE010097FE010097FE010097FE010097FE010097FE010097FE010097FE01000A
S224010040A1060200D1060200010702003107020097FE010097FE010097FE010097FE01007C
S22401006097FE010097FE010097FE010097FE010097FE010097FE010097FE010097FE0100CA
S2240100804506020097FE010097FE010097FE010097FE010097FE010097FE010097FE0100F3
S2240100A0F10A020097FE010097FE010097FE010097FE010097FE010097FE010029FD010092
S2240100C029FD010097FE010097FE010097FE010097FE010097FE010097FE0100313F0100FE
S2240100E097FE010029F9010097FE010097FE010097FE010097FE010097FE010097FE0100BD
S22401010097FE010097FE010097FE010097FE010097FE010097FE010097FE010097FE010029
S22401012097FE010097FE0100F1650100E9A3010009A4010029A4010055A40100A9A40100E5
S22401014097FE010097FE010097FE010097FE010097FE010097FE010097FE010097FE0100E9
S22401016097FE0100415D010097FE010097FE010097FE010097FE010097FE010097FE0100C0
S21401018097FE010097FE0100010005008B070200A3
S2240101F8FFFFFFFF509206006E0000007B0D0A20202276657273696F6E223A207B0D0A2067
S224010218202020226D616A6F72223A20312C0D0A20202020226D696E6F72223A20352C0D84
S2240102380A20202020227061746368223A20313933312C0D0A20202020226861726477613E
S22001025872655F7265766973696F6E223A20320D0A20207D0D0A7D0D0A000000B2
S2240104100000000000000000000000000000000000000000000000000000000000000000C6
S2240104300000000000000000000000000000000000000000000000000000000000000000A6
S224010450000000000000000000000000000000000000000000000000000000000000000086
S224010470000000000000000000000000000000000000000000000000000000000000000066
S22401100081F0004102E000BF83F0004330B54FEA41044FEA430594EA050F08BF90EA020FF9
S2240110201FBF54EA000C55EA020C7FEA645C7FEA655C00F0E2804FEA5454D4EB5555B8BFCF
S2240110406D420CDD2C4480EA020281EA030382EA000083EA010180EA020281EA0303362D86
S22401106088BF30BD11F0004F4FEA01314FF4801C4CEA113102D0404261EB410113F0004FF0
S2240110804FEA03334CEA133302D0524263EB430394EA050F00F0A780A4F10104D5F1200E2E
S2240110A00DDB02FA0EFC22FA05F2801841F1000103FA0EF2801843FA05F359410EE0A5F176
S2240110C020050EF1200E012A03FA0EFC28BF4CF0020C43FA05F3C01851EBE37101F0004582
S2240110E007D54FF0000EDCF1000C7EEB00006EEB0101B1F5801F1BD3B1F5001F0CD34908FC
S2240111005FEA30004FEA3C0C04F101044FEA445212F5800F80F09A80BCF1004F08BF5FEADA
S224011120500C50F1000041EB045141EA050130BD5FEA4C0C404141EB010111F4801FA4F1E4
S2240111400104E9D191F0000F04BF01460020B1FA81F308BF2033A3F10B03B3F120020CDA89
S2240111600C3208DD02F1140CC2F10C0201FA0CF021FA02F10CE002F11402D8BFC2F1200C02
S22401118001FA02F120FA0CFCDCBF41EA0C019040E41AA2BF01EB0451294330BD6FEA04043C
S2240111A01F3C1CDA0C340EDC04F11404C4F1200220FA04F001FA02F340EA030021FA04F38D
S2240111C045EA030130BDC4F10C04C4F1200220FA02F001FA04F340EA0300294630BD21FAAB
S2240111E004F0294630BD94F0000F83F4801306BF81F480110134013D4EE77FEA645C18BF89
S2240112007FEA655C29D094EA050F08BF90EA020F05D054EA000C04BF1946104630BD91EAC2
S224011220030F1EBF0021002030BD5FEA545C05D14000494128BF41F0004130BD14F580041F
S2240112403CBF01F5801130BD01F0004545F0FE4141F470014FF0000030BD7FEA645C1ABF9B
S224011260194610467FEA655C1CBF0B46024650EA013406BF52EA033591EA030F41F400218A
S22401128030BD00BF90F0000F04BF0021704730B54FF4806404F132044FF000054FF00001B7
S2240112A050E700BF90F0000F04BF0021704730B54FF4806404F1320410F0004548BF404203
S2240112C04FF000013EE700BF42004FEAE2014FEA31014FEA02701FBF12F07F4393F07F4F7D
S2240112E081F06051704792F0000F14BF93F07F4F704730B54FF4607401F0004521F000411F
S22401130020E700BF50EA010208BF704730B54FF000050AE050EA010208BF704730B511F092
S224011320004502D5404261EB41014FF4806404F132045FEA915C3FF4DCAE4FF003025FEAA9
S224011340DC0C18BF03325FEADC0C18BF033202EBDC02C2F1200300FA03FC20FA02F001FAB5
S22401136003FE40EA0E0021FA02F11444C1E600BF70B54FF0FF0C4CF4E06C1CEA11541DBF20
S2240113801CEA135594EA0C0F95EA0C0F00F0DEF82C4481EA030621EA4C5123EA4C5350EA6E
S2240113A0013518BF52EA033541F4801143F4801338D0A0FB02CE4FF00005E1FB02E506F0A6
S2240113C00042E0FB03E54FF00006E1FB03569CF0000F18BF4EF0010EA4F1FF04B6F5007F07
S2240113E064F5407404D25FEA4E0E6D4146EB060642EAC62141EA55514FEAC52040EA5E509A
S2240114004FEACE2EB4F1FD0C88BFBCF5E06F1ED8BEF1004F08BF5FEA500E50F1000041EBCD
S224011420045170BD06F0004646EA010140EA020081EA0301B4EB5C04C2BFD4EB0C0541EAA0
S224011440045170BD41F480114FF0000E013C00F3AB8014F1360FDEBF002001F0004170BD30
S224011460C4F10004203C35DA0C341BDC04F11404C4F1200500FA05F320FA04F001FA05F232
S22401148040EA020001F0004221F0004110EBD37021FA04F642EB06015EEA430E08BF20EAA4
S2240114A0D37070BDC4F10C04C4F1200500FA04F320FA05F001FA04F240EA020001F00041C8
S2240114C010EBD37041F100015EEA430E08BF20EAD37070BDC4F1200500FA05F24EEA020EA8
S2240114E020FA04F301FA05F243EA020321FA04F001F0004121FA04F220EA020000EBD37025
S2240115005EEA430E08BF20EAD37070BD94F0000F0FD101F00046400041EB010111F4801F2F
S22401152008BF013CF7D041EA060195F0000F18BF704703F00046520043EB030313F4801F21
S22401154008BF013DF7D043EA0603704794EA0C0F0CEA135518BF95EA0C0F0CD050EA410607
S22401156018BF52EA4306D1D181EA030101F000414FF0000070BD50EA410606BF104619465F
S22401158052EA430619D094EA0C0F02D150EA013613D195EA0C0F05D152EA03361CBF104600
S2240115A019460AD181EA030101F0004141F0FE4141F470014FF0000070BD41F0FE4141F423
S2240115C0780170BD70B54FF0FF0C4CF4E06C1CEA11541DBF1CEA135594EA0C0F95EA0C0F7C
S2240115E000F0A7F8A4EB050481EA030E52EA03354FEA013100F088804FEA03334FF08055E8
S22401160045EA131343EA12634FEA022245EA111545EA10654FEA00260EF000419D4208BF33
S224011620964244F1FD0404F5407402D25B084FEA3202B61A65EB03055B084FEA32024FF40A
S22401164080104FF4002CB6EB020E75EB030E22BFB61A754640EA0C005B084FEA3202B6EB50
S224011660020E75EB030E22BFB61A754640EA5C005B084FEA3202B6EB020E75EB030E22BF1E
S224011680B61A754640EA9C005B084FEA3202B6EB020E75EB030E22BFB61A754640EADC008F
S2240116A055EA060E18D04FEA051545EA16754FEA06164FEAC30343EA52734FEAC2025FEA50
S2240116C01C1CC0D111F4801F0BD141EA00014FF000004FF0004CB6E711F4801F04BF01437D
S2240116E00020B4F1FD0C88BFBCF5E06F3FF6AFAEB5EB030C04BFB6EB020C5FEA500C50F136
S224011700000041EB045170BD0EF0004E4EEA113114EB5C04C2BFD4EB0C0541EA045170BDF2
S22401172041F480114FF0000E013C90E645EA060E8DE60CEA135594EA0C0F08BF95EA0C0FCF
S2240117403FF43BAF94EA0C0F0AD150EA01347FF434AF95EA0C0F7FF425AF104619462CE784
S22401176095EA0C0F06D152EA03353FF4FDAE1046194622E750EA410618BF52EA43067FF492
S224011780C5AE50EA41047FF40DAF52EA43057FF4EBAE12E74FF0FF3C06E000BF4FF0010C2E
S2240117A002E000BF4FF0010C4DF804CD4FEA410C7FEA6C5C4FEA430C18BF7FEA6C5C1BD0EE
S2240117C001B050EA410C0CBF52EA430C91EA030F02BF90EA020F0020704710F1000F91EA3A
S2240117E0030F58BF994208BF90422CBFD8176FEAE37040F0010070474FEA410C7FEA6C5C21
S22401180002D150EA013C07D14FEA430C7FEA6C5CD6D152EA033CD3D05DF8040B704700BF48
S2240118208446104662468C461946634600E000BF01B5FFF7B7FF002848BF10F1000F01BD02
S2240118404DF808EDFFF7F4FF0CBF012000205DF808FB00BF4DF808EDFFF7EAFF34BF01200F
S22401186000205DF808FB00BF4DF808EDFFF7E0FF94BF012000205DF808FB00BF4DF808ED37
S224011880FFF7CEFF94BF012000205DF808FB00BF4DF808EDFFF7C4FF34BF012000205DF858
S2240118A008FB00BF4FEA410212F5001215D211D56FF47873B3EB625212D94FEAC12343F023
S2240118C0004343EA505311F0004F23FA02F018BF404270474FF00000704750EA013005D149
S2240118E011F0004008BF6FF0004070474FF00000704700BF4FEA4102B2F1E04324BFB3F502
S224011900001CDCF1FE5C0DD901F0004C4FEAC0024CEA5070B2F1004F40EB830008BF20F0F3
S2240119200100704711F0804F21D113F13872BCBF01F00040704741F480114FEA5252C2F1C0
S2240119401802C2F1200C10FA0CF320FA02F018BF40F001004FEAC1234FEAD32303FA0CFC1A
S22401196040EA0C0023FA02F34FEA4303CCE77FEA625307D150EA01331EBF4FF0FE4040F4F5
S2240119804000704701F0004040F0FE4040F40000704700BF80F0004002E000BF81F00041FE
S2240119A042001FBF5FEA410392EA030F7FEA226C7FEA236C6AD04FEA1262D2EB1363C1BF5D
S2240119C0D218414048404140B8BF5B42192B88BF704710F0004F40F4000020F07F4018BF0E
S2240119E0404211F0004F41F4000121F07F4118BF494292EA030F3FD0A2F1010241FA03FC39
S224011A0010EB0C00C3F1200301FA03F100F0004302D5494260EB4000B0F5000F13D3B0F198
S224011A20807F06D340084FEA310102F10102FE2A51D2B1F1004F40EBC25008BF20F00100CE
S224011A4040EA03007047490040EB000010F4000FA2F10102EDD1B0FA80FCACF1080CB2EB4D
S224011A600C0200FA0CF0AABF00EBC25052421843BCBFD0401843704792F0000F81F4000163
S224011A8006BF80F400000132013BB5E74FEA41037FEA226C18BF7FEA236C21D092EA030F3A
S224011AA004D092F0000F08BF0846704790EA010F1CBF0020704712F07F4F04D1400028BFE7
S224011AC040F00040704712F100723CBF00F50000704700F0004343F0FE4040F4000070472E
S224011AE07FEA226216BF08467FEA23630146420206BF5FEA412390EA010F40F480007047EF
S224011B004FF0000304E000BF10F0004348BF40425FEA000C08BF704743F0964301464FF0A9
S224011B2000001CE050EA010208BF70474FF000030AE000BF50EA010208BF704711F00043FE
S224011B4002D5404261EB41015FEA010C02BF84460146002043F0B64308BFA3F18053A3F55E
S224011B600003BCFA8CF2083AA3EBC25310DB01FA02FC634400FA02FCC2F12002BCF1004FEF
S224011B8020FA02F243EB020008BF20F00100704702F1200201FA02FCC2F1200250EA4C0009
S224011BA021FA02F243EB020008BF20EADC70704773B96AB9002908BF0028BCBF00204FF0CB
S224011BC00041C4BF6FF000414FF0FF3000F08AB882B0EC462DE9005000F058F8DDF804E038
S224011BE002B00CBC704700BF4BB942B9002908BF002802D04FF0FF31084600F073B882B0FC
S224011C00EC462DE9005000F057F8DDF804E002B00CBC704707EE900AF5EEC07AF1EE10FA68
S224011C2008B503D4BDE8084000F00CB8B1EE670A10EE100A00F006F8424261EB41031046E9
S224011C40194608BD70B5FFF73FFB00230022C3F6F05304460D46FFF78BFB00F045F8064632
S224011C60FFF710FB00230022C4F2F013FFF780FB02460B4620462946FFF7C6F900F034F8AF
S224011C80002202431046314670BD00BFF8B5164604460D461F4600F047F806FB01F300FBF4
S224011CA00737A6FB0023FB18A21A65EB0303069CC4E90023F8BD00BFF8B5164604460D466B
S224011CC01F4600F08FF900FB07F7A0FB062306FB0177FB18A21A65EB0303069CC4E9002354
S224011CE0F8BD00BF704700BF4A0011D212F5001211D20DD56FF47873B3EB62520ED44FEA2E
S224011D00C12343F0004343EA505323FA02F070474FF00000704750EA013002D14FF0FF302B
S224011D2070474FF00000704700292DE9F00F1D46C0F29D800024002DC0F2948080460F464E
S224011D4094461E46E3BB8A4255D9B2FA82F747B1C7F1200520FA05F601FA07F1BA40314337
S224011D60B840170CB1FBF7F6030C1FFA82FC07FB16110CFB06F543EA01439D4208D9711E18
S224011D809B1880F013819D4240F21081023E9B18591BB1FBF7F507FB151380B20CFB05FC81
S224011DA040EA03418C4507D96B1E8A1880F00081944540F2FD80023D45EA0641002503E09D
S224011DC08B420CD9002529460A462B4614B1524263EB430310461946BDE8F00F7047B3FA4C
S224011DE083F5002D40F087808B4201D38242EAD800250121E8E712B90126B6FBF2F2B2FA91
S224011E0082F6002E39D18E1A130C1FFA82FC0125B6FBF3F703FB17614FEA10490CFB07F8DF
S224011E2049EA0146B04506D9791EB61802D2B04500F2D3800F46C8EB0606B6FBF3F103FB34
S224011E40116380B20CFB01FC40EA03439C4506D94E1E9A1802D2944500F2C280314641EA01
S224011E600741B1E7E443524263EB430366E7404261EB41014FF0FF345DE7B240C6F1200948
S224011E8021FA09F720FA09F5130C01FA06F1B7FBF3F845EA01091FFA82FC03FB18774FEAC5
S224011EA019410CFB08F541EA0747B040BD420AD9BF1808F1FF3680F08E80BD4240F28B80B4
S224011EC0A8F10208BF18791BB1FBF3F503FB15171FFA89F90CFB05F649EA07418E4206D969
S224011EE06F1E891871D28E426FD9023D89188E1B45EA08458CE7C5F1200122FA01F306FAF4
S224011F0005F61E4327FA01F24FEA164907FA05F720FA01F1B2FBF9F80F433B0C1FFA86FADA
S224011F2009FB18220AFB08FB43EA024293450CFA05FC08D9921908F1FF314AD2934548D93B
S224011F40A8F102089219CBEB0203B3FBF9F109FB1132BFB20AFB01FA47EA02439A4506D9EE
S224011F604A1E9B1933D29A4531D902399B1941EA08410F0C1FFA8CF808FB07F68AB24FEAC1
S224011F801C4C08FB02F80CFB026202EB18420CFB07FC964288BF0CF5803CCAEB03030CEB8C
S224011FA0124C63450ED305D000250DE70E46EFE61D4601E71FFA88F800FA05F008EB024510
S224011FC0A842F1D201390025FEE63D468FE71146CDE78846B7E7B04675E7023FB6182AE729
S224011FE002393CE72DE9F007144605460E46002B3DD18A4249D9B2FA82F747B1C7F120015A
S22401200020FA01F206FA07F6BC401643BD40220CB6FBF2F02F0CA1B202FB106601FB00F3AD
S22401202047EA0646B34208D9471E361980F0F880B34240F2F58002383619F61AB6FBF2F3E0
S22401204002FB1362ADB201FB03F145EA0242914207D95E1E121980F0E580914240F2E280B0
S224012060023B43EA00400021BDE8F00770478B4243D8B3FA83F4002C42D18B4202D382428B
S22401208000F2DF8000210120EEE712B90127B7FBF2F4B4FA84F2002A40F088800A1B230C6D
S2240120A0A7B20121B2FBF3F603FB16224FEA154C07FB06F04CEA0242904207D9121906F1F3
S2240120C0FF3C02D2904200F2CE806646121AB2FBF3F003FB1023ADB207FB00F745EA034373
S2240120E09F4207D9421E1B1980F09E809F4240F29B80023840EA0640B6E700210846B3E779
S224012100C4F1200622FA06F503FA04F32B434FEA134C21FA06F501FA04F120FA06F6B5FB01
S224012120FCF746EA010A1FFA83F80CFB17554FEA1A4108FB07F941EA0545A94502FA04F278
S22401214003D97E1EED187FD33746C9EB0501B1FBFCF60CFB16151FFA8AFA08FB06F84AEAD1
S2240121600541884503D9751EC91873D32E4646EA0746370C1FFA82FC0CFB07F5120CB3B25F
S2240121800CFB03FC02FB035303EB1C4302FB07F29D4288BF02F58032C8EB010102EB1342D7
S2240121A091424BD342D0304600215DE79440C2F1200521FA05F6230C20FA05F701FA02F146
S2240121C0B6FBF3FC39430D0CA7B203FB1C6645EA064607FB0CF8B04500FA02F508D9361954
S2240121E00CF1FF303DD2B0453BD9ACF1020C3619C8EB0602B2FBF3F003FB10268AB242EAB4
S224012200064207FB00F1914206D9461E121926D2914224D902381219521A40EA0C4141E704
S22401222038460AE733461CE7104663E71FFA8CFC00FA04F00CEB03439842B4D2701E002132
S22401224012E7214620460FE7A9457FF67DAF023FED187AE7884589D9023EC91887E7304652
S224012260DAE78446C4E7023E12192FE719F012F90DF08CFE09480A4A0021121A14F0B6F961
S22401228019F0E4F819F018F919F07EF819F022F9044900200EF030FF14F05AF93002FF1F55
S2240122A0A4B700203002FF1FFEE70000044B054964221A70044A002008701070704700BFDF
S2240122C04A02FF1F3902FF1F3802FF1F034B187003480268511C0160704700BF4B02FF1FA3
S2240122E03402FF1F70B5002213464BB1581E22490D5CCC5CA54203D2CD540C54C3B2F4E7E9
S2240123000132D2B2102AEFD11B4B1878002102460C460123184D6D186D78A84205D1CEB222
S2240123200E2E02D0581CC3B209E0A34204D805D190421C4601D801E01C4602460123013132
S2240123400F2901D02846E5E70C4B1868824201D3421ED2B20A490B7893420A4B08D1197877
S224012360481CC1B20729197005D9074B1A7070BD002018700A7070BD3A02FF1FACB50200D4
S2240123804C02FF1F3902FF1F4A02FF1F38B5194B18680F282BD9184A1849137808781849CD
S2240123A0C8540133D8B20F2810701BD9154D164CFFF798FF2A7801211120A21800F03EFB69
S2240123C02978635C052B01D8022004E00F2B01D8012000E0002003F04FF8074A0020107029
S2240123E0012000E00020034B0021196038BD002038BD00BF3402FF1F3802FF1F4B02FF1FEE
S2240124003A02FF1F4A02FF1F44B5020070B5194D194A2E6830237343D6F1010638BF00267F
S2240124202E60C025D554D418002501238D4212D0425DC02A03F1010604D1DB22E25433460F
S224012440DC2204E0DB2A02D1E2543346DD22E25401350133EAE7C020E0545D1C0749AAB264
S224012460486821460DF0A4FB082801D130BFF5E770BD00BFC806FF1F0807FF1FB089002078
S2240124801D4B1A6810B58AB91C490868002831D01B4C0A6020781B4C012804D902201A49EB
S2240124A0226803F029F90023236020E0174801684B00202B1DDC1648164A0168136829B1FE
S2240124C0154A172101FB0320FFF7A0FF0A4B1868411E19600F4B1A68501C1F2801D818601E
S2240124E001E01F3A1A6009490B685A1C0A60012010BD002010BD00BF6807FF1FD803FF1F5D
S224012500EE00FF1F5002FF1FB0B502000407FF1FD003FF1FD403FF1FE003FF1F38B54D4B3D
S2240125201A78012A0CD003D3022A40F08A8014E049490A78022A40F084800120187080E04F
S22401254045490A78032A7CD102201870434A444B002111601960434A72E04148424B0268BB
S224012560172101FB02313C4B1878DB2802D101203C494CE01A78C02A4BD1384A1368002B6F
S2240125805FD0162B03D80020C8540133F9E71360334A1368344A17204343D118D05C0A28AD
S2240125A003D1324B324A196804E0D05C0C2803D14978304A116028E0C8780D2814D14878E1
S2240125C0192811D1D35C062B0ED12B4C0A79236841F61060D518854217D828480531C01846
S2240125E013F0E3FF256010E01D490A68501C1028086001D100230B60214A09681068814220
S22401260003D12048204902F0C9FF14490020086017E0144A106858B11878DC2801D1C02054
S22401262003E01878DD2801D1DB201870002313600A4A1368162B04D807480078C854591CED
S22401264011601249486804490122BDE838400DF07FBA00BFCC06FF1FC006FF1FC803FF1FB9
S224012660DC03FF1FC403FF1F5402FF1FFCAF0020E406FF1F0407FF1FECAF0020DC910020BA
S224012680E806FF1F0C180300E0190300B089002038B50378092B05460A4607D0154A1368C4
S2240126A0002B25D0BDE83840FFF7B0BE1248134B04681F2C01D901211960186820B1104BE3
S2240126C01868411C196038BD0E4B196863181F2B0D4988BF203B172000FB0310294613F05B
S2240126E064FF054A01341460BDE83840FFF7C8BE38BD00BFD003FF1F6807FF1FD803FF1FB5
S2240127005002FF1FD403FF1FE003FF1FF0B587B003F08AFF14220446002101A813F066FF43
S224012720294B186899880190ADF8081001F074FC94F82050027894F82140FF2A14BF174613
S2240127400027FF2D01D0FF2C01D100242546002000F0D8FF1D4B8DF80C5059881E789A88FA
S2240127601B4BADF812104FF0070C83F800C04FF0150C003083F801C04FF0140C83F802C031
S22401278018BF01204FF0050CADF80AC08DF80D408DF80E008DF810708DF81160ADF8142043
S2240127A001A9033305AD0C4603CC596018600833AC422146F7D1226805481A60172107B097
S2240127C0BDE8F040FFF764BFC106FF1FF4AF0020CD06FF1F10B50C4C60680DF027FA6068A1
S2240127E00DF056FA09480A4B0A49002404600A200C601C6003F074FF074801212246BDE80F
S224012800104007F0E9BC00BFB0890020CC03FF1FD003FF1F6807FF1FE03906002C4A2D4839
S2240128202D49406810B500232C4C1360012223700DF08EF92A48012107F0B8FC2178012965
S22401284001D030BFFAE7274B1960FFF75FFF26480346032203F8012B244A11685268C0F836
S224012860011017215A60FFF713FF03F0DDFE01461F480A2303700A780130FF2A08BF1D4922
S224012880162213F0C0FE1A481721FFF701FF1A48022101701721FFF7FBFE10480378022B8C
S2240128A001D030BFF9E701F0B3FB0278FF2A02D0002002F0DBFE1148114B002101601A68BA
S2240128C0104907480A60BDE8104007F021BC00BFECAF0020B0890020C006FF1FCC06FF1F70
S2240128E0E0390600D003FF1FEC06FF1F880101006C07FF1FECB502008307FF1FE806FF1F40
S224012900FCAF0020E406FF1F08B5FFF763FF022003F0E6FEBDE80840FFF780BF38B5394B3D
S224012920186840B13849394B0A681868111AC82901D90DF097FAFFF7A3FD354A3549136897
S2240129400A6893425DD0172433486343C418C35C591E0A2941D8DFE801F0384040060F124C
S224012960194025402F0000F005FD2C482C4B0121002201601A603CE000F006FD25E062787A
S224012980192A36D1E01C00F07BFD32E000256019437873B340782349013513F097FC172DBE
S2240129A0F5D126E02046204B50F8012F81881A60998000F0F5F81CE003F03CFE611C20229B
S2240129C013F021FE03F050FE13E0FFF79DFF1348134A00210160116012E0144B197819B1B2
S2240129E00120134902F088FE12481349C82202F043FE07480268531C102B08BF0023036059
S224012A00012038BDD003FF1FFCAF0020E406FF1FE806FF1FDC03FF1F5402FF1FCC03FF1F6C
S224012A206807FF1F8001FF1FC106FF1FEE00FF1FF0B502000C180300E01903007FB50B4624
S224012A4008218DF800108DF8010011460DF103001A468DF8023013F0A8FD68461721FFF739
S224012A6017FE07B000BD00007FB50B460A49096881B109218DF800108DF8010011460DF1B2
S224012A8003001A468DF8023013F08FFD68461721FFF7FEFD07B000BDCC03FF1FF0B5224B3D
S224012AA01D68854289B0044609D92D1A1F481C600268AE18202E88BF203E066000E00025A7
S224012AC01A4F3B680BB1591E00E01F21164839600268561C066014260021324603A813F0D7
S224012AE085FD01238DF81F30009523461321104A104C03A813F044FC3D681721694363187C
S224012B0009203822605407AD5A709E7003A903330C4603CC596018600833AC422146F7D160
S224012B202068186009B0F0BD6807FF1FD403FF1F1DB60200E003FF1F10B500200CF04CFFA5
S224012B401348144C07F01AFB01212060104807F0EFFA23684BB101210F4807F0E9FA0E489E
S224012B600021BDE8104007F021BB0C4807F006FB044658B90121084807F0DAFA06482146CD
S224012B8007F014FBBDE810400DF06CB910BD00BFE83906002008FF1F9C390600143A0600EA
S224012BA030B5304B0446186885B0002858D02E4DE8690EF0F9FA012002F092FDFFF70AFE03
S224012BC0C82003F08DFD686801210DF085F827492748002240F28B734A730093254901220C
S224012BE0052313F0D9FB05461F4821494068AAB20CF0DEFF082801D130BFF5E7E1786279D6
S224012C0023790091A078019061781B48029124781A49039413F0C0FB0446134A16495068F7
S224012C20A2B20CF0C5FF082801D130BFF5E71448144913F0E1FC0C4B1149586810220CF075
S224012C40B7FF082801D130BFF5E70F48014602F0A5FC01F0A3FF05B0BDE8304002F07CBA35
S224012C6005B030BD2008FF1FB089002000A00640BA07FF1F2DB60200E007FF1F44B6020062
S224012C800008FF1F68B60200AC190300014B1868704700BF2008FF1F014B01221A607047F8
S224012CA0DC07FF1F38B5194B186870B31848006858B302F065F810EE100AFEF705FB0246A2
S224012CC00B461448144913F067FB0546134C11496068AAB20CF06CFF082801D130BFF5E723
S224012CE0C82003F0FDFC002160680CF0F5FF01F059FFFFF793FD00F003FA0948094902F0D0
S224012D004DFC024900220A60012038BD2008FF1FDC07FF1F9A07FF1F79B60200B0890020E7
S224012D20E0190300EC17030010B5C3B28A18000A914213D0B0F1004F0BD9040C14FA80F08D
S224012D401C0C14FA83F3040A54FA80F01C0A54FA83F311F8014B1B19C018E9E7FF2803D9D7
S224012D60010A51FA80F0F9E7FF2B03D91A0A52FA83F3F9E743EA002080B210BD03460A46F6
S224012D804FF6FF701946FFF7CFBF10B54FF6FF7341181A4688420CD0002B05DA1C0C14FA7B
S224012DA083F3140C14FA82F210F8014B12199B18F0E74FF6FF718B4203D9190C11FA83F3E8
S224012DC0F7E78A4203D9100C10FA82F2F9E742EA034010BD0F4B10B51C68631C18D004F5AE
S224012DE000242088012805D010D34FF6FF72904209D10DE0616801F50020A168FFF7C5FF2F
S224012E00E368984204D160882418EAE7012010BD002010BDFC010900704708B503F004FC75
S224012E2090F82030012B05D190F82100BDE8084000F068BC002008BD01F0ECBB082807B59F
S224012E40124B10D1196809B964221A601B680F480E4A191DFF2988BFFF21016011781420D6
S224012E6007F032FB10E0002205281A600CD101200092ADF8042006218DF801006A46232076
S224012E808DF80010FFF7F0FD0EBD00BF3C08FF1F054BFF2200201A705A704FF6FF72588055
S224012EA0DA801871704700BF2408FF1F08B51C4B1C480021196006F0F1FD08B101F0B0F811
S224012EC002210022174806F0DAFD16481649002206F027FE13481549002206F029FE114830
S224012EE01349002206F02BFE0E481249002206F02EFE0C481049002206F02EFE09480F49A0
S224012F00002206F02EFEFFF7C3FF0D4A0D48116853680D4A016043600020106008BD00BF60
S224012F2060BEFF1F4408FF1F6D30010011320100392E01003D3001003D2E0100192E010079
S224012F402408FF1F3008FF1F4008FF1F30B587B003F0E8FA00286AD1364A374B10881988D6
S224012F60884203D154885D88AC422BD01B7832480022FF2B0092ADF8042003D102208DF8D4
S224012F80000012E0447845888DF8013001218DF800108DF80240ADF8045001F055FB00281A
S224012FA00CBF012202228DF80320234C06216A462320FFF759FD1F4B217865786288197029
S224012FC05D705A801C4D1B4C28792179D0F1010338BF0023002914BF1A4683F0010282B155
S224012FE0002006AA83420CBF042305230290ADF80C0002F8103D23200621FFF735FD2D795A
S22401300025710D4D0B4CE988E2888A420FD000200490ADF814000323ADF81110232006211A
S22401302004AA8DF81030FFF71FFDE988E18007B030BD00BF2408FF1F3008FF1F03280ED027
S22401304004D801280BD007D8002008E0052806D004D34FF6FF7002E0022000E00420024BC0
S224013060D880FFF773BF00BF3008FF1F08B51E4B002202282DED028B1A609CBF1B4B1A5CEB
S2240130801B4888BFFF2202290270024698BF1948B5EEC00A94BF405CFF20F1EE10FAB0EEC0
S2240130A0408A507006D4DFED147AB4EEE70AF1EE10FA01DD00F0B4FF9FED100A68EE000A49
S2240130C00B4BBCEEE08A18EE101A598001F0BCFA00280CBF0120022003F0C4F9BDEC028BB4
S2240130E0BDE80840FFF732BF3C08FF1F8FB602003008FF1F92B60200DB0FC94000007A44FC
S224013100124B10B501221C681A6000F0BDFF08B901F028F800F018FE08B900F053FD01F0F0
S2240131200FFE08B901F03AFD74B9FFF776FE02210246074806F0A3FCFFF7AAFE054B064871
S22401314019685A680160426010BD00BF60BEFF1F4408FF1F2408FF1F3008FF1F014B186885
S224013160704700BF60BEFF1F08B5FFF756FE01460248BDE8084006F073BC00BF4408FF1FC4
S22401318010B5094C2378FF2B0DD0217929B120B94FF49670962107F097F900202071BDE843
S2240131A01040FFF7D3BE10BD3008FF1F38B5134B1A78FF2A044620D018B9BDE83840FFF7EB
S2240131C0DFBF1D795DB99620FF2107F07DF97820294607F079F93220FF2107F075F90849C4
S2240131E006480A68074B047107481A600168074A1160BDE83840FFF7A9BE38BD3008FF1F89
S224013200FCAF00204008FF1F3808FF1F2C08FF1F08B503F07FF970B10120FFF7B1FF064B66
S224013220FF2200201A705A70588003F01BF9BDE80840FFF78BBE08BD3008FF1F024B002060
S2240132401860FFF7E5BF00BF60BEFF1F134B70B50646187901280D4614460CD11049114B93
S2240132600A681868111A0A225143B1F5FA6F02D30020FFF785FF0C4B186868B131462A4616
S2240132800A48E3B206F0E6FC04490A78FF2A03D0BDE8704003F064B870BD00BF3008FF1FF8
S2240132A0FCAF00204008FF1F60BEFF1F4408FF1F034B1B6801460A2202485A4306F077BCDD
S2240132C0FCAF00204408FF1F0146014806F0ADBC4408FF1F1FB5044604F0B4FC174B184AD4
S2240132E01979012982ED000A15D1164892ED007AD0ED007A5A7837EE670A012ADFED120AA4
S22401330008BFB1EE400AB4EEE00AF1EE10FA02D80020FFF735FF204604F07AFC084B1968BA
S224013320204602918DED010A04F09CFC074801A98DED030A06F07AFC1FBD00BF3008FF1FA0
S2240133403808FF1F2C08FF1FC7B832BE4408FF1F10B5044603F0DEF840B107F011F928B933
S22401336003482146BDE8104006F062BC10BD00BF4408FF1F08B503F0C1F8012002F076F9AB
S224013380BDE80840FFF784BD08B5FFF7B9FE0020FFF7F6FE002000F0E5FE002001F0ECFCA3
S2240133A0002000F0EBFC002003F052F80020BDE8084002F05BB9F8B58578012D04460BD0A3
S2240133C0042D0CD0691F4E424E415EB907797A1E504250EB020706E02E462F4603E0012655
S2240133E0374600E0012703F08FF82379012B02D1FFF786FE01E0FFF721FFA078B4F80510E3
S22401340000F0A8FCE078B4F80910E27A01F09EFC47B16A1F514251413046E279237A00F00A
S22401342039FE01E000F0A4FEBDE8F840FFF78EBD1FB50378417882788DF80430C37800794F
S2240134408DF805108DF8080002998DF806201420C8228DF80C0062F31721029103998DF809
S2240134600730322264238DF80B3062F31721002301A803918DF80F30FFF79DFF05B000BDBF
S22401348070B503780446581E182800F2C880DFE810F019001E00500074002D0037006700BF
S2240134A0280023007B0080008600C6009400C600A900B500BA00C100C100C100C100C1003D
S2240134C0C100C1002046BDE87040FFF7B1BF2046BDE87040FFF76FBFA078BDE8704002F005
S2240134E0B7BFA078BDE8704002F000B901F082FE002800F094804A4841F2883201460FE0E6
S22401350000F082FD0023E2189178C1540133092BF9D100F047FD38B141484FF4FA6201463D
S224013520BDE8704002F0A8B83E483F494FF47A72F6E7A078022805D003280ED001286ED13C
S224013540C82001E04FF42F70FF2106F0BDFF64200021BDE8704006F0B7BF4FF49660F3E76F
S2240135600025032000FB0541488810B1097906F0ABFF0135062DF4D170BD2C4801210022F6
S224013580BDE8704006F028BEA078BDE87040FFF70DBEA378002B42D178200146D9E703F0DB
S2240135A049F8A17880F82010E27880F8212003F05BF8BDE87040FFF7D7BD1D48B4F8032097
S2240135C003689A4208D1A07800F054F8002826D000201849A2780DE017490020BDE87040F6
S2240135E002F08AB8154A1378012B18D91449D4F802200220BDE8704002F07EB86088BDE813
S2240136007040FFF74BBA00F007FDA178017000F0C9FC6DE72046BDE8704002F031BC70BDAB
S2240136209C180300541803002C180300B0390600ECAF002095B60200B8B60200EE00FF1FA4
S224013640F3B60200084B07B5410302461868431A06498B4206D2803900910020044902F0A4
S2240136604BF8002318460EBD0C390600B8920600FDB6020038B51C4B1C4D044618780228A4
S22401368005D903201A492B68224602F035F80021296014B9174A146803E02046FFF7D2FF42
S2240136A00446B4B12046022101F018F80E4D30B1287870B10120104902F01EF809E02046FD
S2240136C00E4941F6106200F0DDFF04460028EFD101E0012038BD2B78012B03D902200849D1
S2240136E002F00AF8204638BDEE00FF1FECAF002031B70200343906006CB70200DC9100209F
S22401370092B7020008B510B9074B186801E0FFF799FF0021425CFF2A05D1013141F61063F7
S2240137209942F7D1002008BD3439060008B51E4B1878022803D903201C4901F0DDFF002057
S2240137401B494FF4B14200F0F7FF08B117490FE015490A78022A03D90320164901F0CCFFB5
S224013760154B93E80300090300F0EEFF18B1114902F012F815E00C480178022905D903206F
S2240137800E494FF4803201F0B7FF4FF480304FF4E02100F0D9FF30B108494FF4803201F019
S2240137A0FBFF012008BD08BDEE00FF1F2E100300B2B70200551003001C3906008010030050
S2240137C0022808B504D003280CD1FFF7AFFF04E0054B93E8030000F081FFD0F1010038BFA1
S2240137E0002008BD012008BD243906002DE9F0418AB002F0A7FE38B97B4B0FCB06AC84E8CE
S2240138000F00204602F0ACFE02F09CFE0546C068764910F0010F0A7828D0012A03D9022020
S224013820734901F069FF734C7348744901F0B6FE14F8073C591E484248410AF0B7FF95E88B
S2240138400F0006AC84E80F00099A204622F00103099302F085FE65490878012803D90220A1
S224013860674901F049FF0CF0FDFA05E0022A03D90320644901F040FF634A6448116845F66C
S2240138807C0212F081FE594B10F0FF0F197800F0A180012903D902205D4901F02DFF5D4D3A
S2240138A05D4CE8695D4D0DF07FFC5348534901F075FE0DF116000DF11702009001922B686A
S2240138C0246802935648214608220DF1150306F0EDFB002840F0848044489DF81510027882
S2240138E0002936D1022A04D903204E49224601F003FF0DF116060DF11705484F009601957D
S224013900386821460290012245480DF1150306F0CDFB8046002863D19DF81520032A5FD13B
S224013920FFF704FF024610B140463F4921E0009601953B683A480293214604220DF11503E7
S22401394006F0B4FB00284BD19DF81510042947D135E0022A03D90320344901F0CDFE344A82
S2240139602F482B68214606F02CFB024620B13149002001F0C1FE33E01C4B1978022903D93E
S22401398003202D4901F0B8FE0DF116000DF11702224B0090019219682148029108220DF181
S2240139A01503214606F082FB9DF81520034608B9042A04D00020214901F09EFE10E00B48DF
S2240139C00278012A03D902201D4901F095FE0CF049FA05E0022903D903201A4901F08CFE28
S2240139E00AB0BDE8F08100BFD8B40200EE00FF1FB710030000020100CC170300E0190300E9
S224013A00CA100300EC1003002C390600B2B70200FE100300B089002004390600F0AF002082
S224013A20A800FF1F181103004B11030078110300C13701008C110300B1110300CD11030064
S224013A401812030041120300094B1A68501C18601968CB05D80D0749074B122202FB00100A
S224013A6003F5815203F580511061044808607047ACE2FF1F80BEFF1F008000405A12030099
S224013A8008B5444B0122B0F57A7F1A6003D8092898BF0A2001E04FF47A70B0F5FA7F3E4959
S224013AA03E4B94BF002201220A603D4A10600020186001F08BFE3B490A78032A4BD0C82135
S224013AC04FF47A7001F01EFF3C21B1EE040A4FF47A7001F0A3FE3221B1EE040A4FF47A70AF
S224013AE001F09CFE7821B1EE040A4FF47A7001F095FE6421B1EE040A4FF47A7001F08EFE62
S224013B00B421B1EE040A4FF47A7001F087FE9621B1EE040A4FF47A7001F080FEF021B1EECA
S224013B20040A4FF47A7001F079FEC821B1EE040A4FF47A7001F072FE4FF49671B1EE040AC1
S224013B404FF47A7001F06AFE4FF47A70FA21B1EE040A01F063FE1448144B0168144A196097
S224013B601449154B002010600860042018620121124806F01BFB0DF05DFA11492E224A60BC
S224013B80086840F001030B600A6842F48030086008BD00BF68BEFF1F78BEFF1F6CBEFF1FEC
S224013BA070BEFF1FB0E2FF1FACE2FF1F7CBEFF1F64BEFF1F74BEFF1F00B00340E839060055
S224013BC000600340C820FFF75BBF00000F4A104808B50023136003700E4BD9694A0204D50D
S224013BE00D4A106820F080011160DA6922F48000D8610021094806F0D9FA094B094A0121D8
S224013C00196210680849086008BD00BF68BEFF1FB0E2FF1F2080044000600340E8390600CC
S224013C2000B00340ACE2FF1F7CBEFF1F70B53C4C3C49E06888B00CF073FB3A49E0680CF0A4
S224013C409BFB3949E0680CF06BFBE06836490CF093FB364B01221A62FFF718F8002859D1D3
S224013C6000F0D6F90078FF284BD1FFF7ABFF30490E682F4C256806F16402954204D2284CAF
S224013C80E0690DF0C5FAF4E72A4B6846002120221C6812F0ABFC00252548016806F16E0229
S224013CA091421DD223490A68A24214D00023E005C10D092202FB01301F4931F8102090B264
S224013CC020B95DF823104A1C4DF823200133082BEDD1013501341248C0690DF099FADBE72A
S224013CE06D1000235DF80300A84208DC0433202BF8D100F08DF90021017000F053F9FFF773
S224013D0065FF00F085F90278FF2A03D10B480C4901F044FC0B4B0120186008B070BD00BFE8
S224013D20B08900205400FF1F0000FF1F00B00340FCAF0020ACE2FF1F80BEFF1FBC180300F7
S224013D40E0190300A8E2FF1F014B1868704700BF68BEFF1F084A10B50C46107020B1204613
S224013D60BDE81040FFF78CBEFFF7F8F90028F6D1BDE81040FFF72ABFB0E2FF1FC821FFF7CF
S224013D80E9BF0000F8B55648564B574C1E7822680168B71E8A42FFB200F09F800568AB1ACA
S224013DA0B3F5007F04D302686FF4FF701118216025684E4AEB05D80D122101FB00254C4B34
S224013DC0288A642110FB01324FF4D17592FBF5F0C0B2FEF77BFA2468E305D90D00230925E6
S224013DE005FB0130414A32F810400133A4F50065ACB2082B22F810401546F0D1032E04D039
S224013E00122202FB015001F08FFE374C2168C805C30D122202FB035000F0B0F9022F56D877
S224013E203448354902680B689918B1F57A7F01604DD3A1F57A76066025683048EC05016889
S224013E40E60D0023092202FB0635284C34F8150002B2083214112A4A7F2CA8BF7F2450188A
S224013E606FF07F05AC42B8BF2C46C4540133082BE8D12448214C0568083121604DB910290B
S224013E8025D1214B21481B68C05CFEF7D7FD256015E0182907D11C491C480B681421C05CC9
S224013EA0FEF7CCFD0BE0282911D1174917480B6814215218C05CFEF7C1FD00222260124981
S224013EC00A68531C042B0B6001D10020086006490A68531C0B600120F8BD0020F8BD00BF02
S224013EE0ACE2FF1FB0E2FF1F7CBEFF1F80BEFF1FB87BFEFF6CBEFF1F70BEFF1F64BEFF1FA8
S224013F0080E2FF1F78BEFF1F74BEFF1F63120300044B186828B104490A6812B9034B50200F
S224013F2018607047A8E2FF1F68BEFF1F00B00340684620F007010A4B8D4601B518696422C2
S224013F405043A0F54A31FC3940F26633B1FBF3F0C0B2FEF7BBF9BDE801408546704700BFE7
S224013F6000B0034038B50B480B490C4C01F016FB0B4B1B6803F1280518685968224603C2F2
S224013F800833AB421446F7D103480146BDE8384001F004BBBC180300E0190300B4E2FF1FEB
S224013FA0FC38060038B5114B114D1C680121204600F094FB18B12978012049B938BD2046A7
S224013FC00C49282200F05EFB04460028F3D104E0094901F091FB012038BD2878012803D94F
S224013FE00220064901F088FB204638BDFC380600EE00FF1FB4E2FF1F67120300A012030050
S22401400000487047B4E2FF1F00487047CCE2FF1F00487047D5E2FF1F00487047D6E2FF1F73
S22401402008B50948094901F0B9FA01F035FA084BD8690DF0EDF8074806F0A0F80028F4D116
S2240140400BF010FFF1E700BF0C180300E0190300B0890020143A060013B50446022002F0C3
S22401406001FA002307200093002C0CBF012402248DF80000062123206A46ADF804308DF823
S2240140800140FEF7F1FC1CBD014B9868704700BF80F2FF1FF7B51D4642F254030746009352
S2240140A0A3F59650D3070E461446019008D522490B781BB10120214901F01EFB013CE4B264
S2240140C0C82C09D91C4A107828B101201C492246C82301F011FBC824A54209D916490B78D0
S2240140E02BB1012017492A46234601F005FB2546154A4FF4FA7000216B4609F005FE134AF1
S224014100106008B9FFF78CFF00212046104A01AB09F0FAFD0F49086008B9FFF781FF0E4B1A
S2240141200E4A0F49002018601060012081E830008860CF600E61FEBDEE00FF1FB8120300ED
S224014140F01203002F130300501900202C780020980B0020DCE2FF1F940B00204C190020DF
S22401416080F2FF1F002164221423FFF793BF0000014B00229A60704780F2FF1F2DE9F0418D
S224014180C14AC24B14681B68C14D2DED028BB3FBF4F604FB1631A2B005EB81060022855AA5
S2240141A02DB205EE905A4FF4C87101FB0261F8EEE57A0232102AC1ED007AF0D10133B34996
S2240141C013F001020B601CD1B24F39684FF4FA75B1FBF5F605FB1617AF4D05EB8705875A0A
S2240141E03FB207EE107A4FF47A7606FB0256B8EEC70A0232102A86ED000AF0D1481CA54948
S2240142000860A14A9068002800F0EB81A342C0F0E88151681B1BB3FBF1F401FB1434002CD9
S22401422040F0DF8105A82146112212F0DFF919AE3546974B994F4FF4487202FB04313868EC
S224014240974A09F0E9FD9048954A01689FED958A4F08B0EE483A00230832BB4211D812ED14
S224014260012A52ED021A62EE022A41EEA12A03EE903AB8EEE34A33EE223A04EE228A01335F
S224014280EAE701EE101ADFED881AB8EE416AC8EE030A0134082C81EE862AB0EE618A60EE4D
S2240142A0822A12EE901A45F8041FC2D1794D2C68B4F5FA7F30D311AF00247C4A764B10684D
S2240142C0774A4FF4FA6101FB043109F0A5FD9FED753A7348F0EE436A002590ED014AD0ED82
S2240142E0003A64EE044A43EEA34A05EE105A0135F8EEC55A0830FB2D76EEA46A05EEA43A85
S224014300EBD1C3EE267A0134082C17EE902A47F8042FD2D1012500E0002509AFB846002448
S22401432059495B4B09684FF4C870DFED5E0A00FB043200238B4207D002EB830090ED006AC0
S224014340013346EE060AF5E707EE103AB8EE470A80EE800A13F024FF05AABCEEC01A10EE7E
S224014360101A11EE100AA0520234102C48F8041FD6D135B902F058F990F82000012834D17F
S22401438032E09DF8241012AA0023043797ED006ADFED471AB4EEE16AF1EE10FA08DD92EDCD
S2240143A0002ADFED442AB4EEE22AF1EE10FA0FD4B4EEC86AF1EE10FA40F3118192ED003ADE
S2240143C0DFED3D3AB4EEE33AF1EE10FA40F10781012404FA03F4013321430432082BC9B29D
S2240143E0D3D18DF82410C5E755B92749CA680C46002A73D02720112105AAFEF71FFB6DE0BB
S2240144002E4C2468002CF0D102F084F80028ECD0234622A9CA1812ED104ADFED294AB4EE01
S224014420E44AF1EE10FA2BDD0AA8C41894ED005ADFED246AB4EEE65AF1EE10FA20D874EE6F
S224014440647ADFED215AC7EEA50A9FED200A9FED207AB4EEC05AF1EE10FA30EE872A07DD99
S22401446036EEC51A9FED1B6AC1EE061A22EE212AF7EE002A32EE223A65EE033AC4ED003AF2
S2240144800433202BC5D1B0E780F2FF1F4C19002094F2FF1F940B0020A8390020DCE2FF1F12
S2240144A0E0E2FF1F0000000000007A442C780020000048440000484200008C42A4390020B3
S2240144C00000B4420000FA4352385E420000C843CDCCCC3D0000C842000000432069D0B175
S2240144E0002101A8102212F081F80021043696ED004A1FED075AF6EE004A44EE054A01AA50
S224014500FCEEE46A16EE900A885202311029EDD12B20FEF793FA0AA81AA99DF82420FEF7AB
S22401452095FE002D5DD0314B1C68002C59D13049304A086811680A22401A2F4950438842FB
S22401454007D901241C6001F0E5FF002849D0204642E02A4BE35853BB29484FF4FA72DFED8C
S224014560297A02FB0401C818D0ED005A0433B3F5FA6F45EEA57AF6D1DFED230A87EEA00A20
S22401458013F00EFE9FED217AB4EEC70AF1EE10FA0DD522AA111911ED100A9FED1D1AB4EE2E
S2240145A0C10AF1EE10FA02D5144B0120E0500434202CCED100231A461049585800B1013227
S2240145C00433202BF8D1052A0BDD08480121016001F0A0FF28B10020FFF73EFD01E00024E1
S2240145E0F7E622B0BDEC028BBDE8F081A4390020FCAF002028780020E09304002C19002056
S224014600A8390020000000000000FA430000164300004842074808490268084B084810B501
S22401462000240A60214620221C6011F0DFFF054B1C6010BDFCAF002028780020A4390020C1
S2240146402C190020940B0020014B1868704700BFA439002008B58021064A074805F008FCFB
S224014660064B1860064805F060FCBDE80840FFF779BC00BF939E010030780020F0AF00203C
S224014680A800FF1F104B73B50446187802280E46154604D903200D49234601F02DF871B61C
S2240146A00B490C480A683346009221462A4605F045FC61B638B10090074900202A462346E9
S2240146C001F01AF801207CBDEE00FF1F73130300F0AF0020A800FF1F92130300114B73B531
S2240146E0044618780D0302280E4606D9009403200D4932462B4600F0FFFF71B60B4B0C48B8
S2240147001B6821462A4605F0D8FB61B640B1019000940020074932462B4600F0EDFF0120EE
S2240147207CBD00BFEE00FF1FCE130300F0AF0020A800FF1F04140300024B1B681818FFF7F5
S224014740A1BF00BF243906000A460146FFF7F4BF73B50D46044607F0D3F806460DF10200BE
S22401476006F0DCFBA968BDF802302A6868685A4358434B432A60AB60686001A806F0AEFBA1
S224014780D4ED006A94ED011A94ED023ADDED017AB8EEE67AF8EEC11AF8EEC33A27EE270A5A
S2240147A021EEA72A23EEA74AFDEEC00AFDEEC22AFDEEC44AC4ED000AC4ED012AC4ED024AF8
S2240147C008F02CFB08F038FB08F02EFB30467CBD104B37B5044618680F4B4FF47A720D46CC
S2240147E0B2FBF0F118684843FEF7B2FD01F09AFE78B90A4A11788B1E012B0AD88DF804009F
S22401480003211F2001AA8DF805408DF80650FEF72BF93EBDB4780020D8780020EC7800208B
S224014820014B01221A607047D4780020014B01221A607047F0780020044B05491A68501CB3
S22401484018600B680BB901F08BBD7047DC7800205479002073B51D46174B8DF8071006467D
S22401486014461868324600210CF032FB13480022026011490122086800230DF107010CF0A5
S2240148804DFA0828F5D00D4B1A680AB930BFFAE70B4900200860084B2946186822460123BF
S2240148A00CF0A6FA0828F6D0054A106808B930BFFAE700207CBD00BFB0890020D47800202B
S2240148C0F07800207FB5064604A8154600F8101D1946013011F069FE0C4B00213246186836
S2240148E00CF0F6FA0A4900220A6008486A1C0123006869460CF012FA0828F6D0044B1A6807
S2240149000AB930BFFAE7002005B060BDB0890020D478002070B58C4B054618688AB00C46F4
S22401492040B18A490A68954204D1894B1878A04200F00781002006F085FD844E792006F0D8
S22401494037FC782006F00AFB824A3560824E002128461160356006F02DFD308806F098FA65
S2240149604FF4FA6006F0A0F9102006F0EFF98CB10DF10E0006F01EFA784B1878012806D945
S22401498002207749BDF80E30224600F0B5FE204606F02CFA6E490DF10E000C7006F00AFA76
S2240149A00DF1060006F05EFA0DF10A0006F062F90DF1050006F0AEF9684C03A807F010FA46
S2240149C002A806F05DFA2278022A07D903206549BDF80620BDF80A3000F08EFE2378022B55
S2240149E007D903206049BDF806209DF8053000F083FE5A4801780229044607D903205B49B8
S224014A00BDF80820BDF80C3000F076FE2278022A05D903205649BDF80E2000F06DFEBDF805
S224014A200630544C94FBF3F007F0DEFFBDF8060094FBF0F007F0EAFFBDF8061094FBF1F00F
S224014A4007F0F8FF4C4A51681068147A04AB03C352F8090F1C70516807AB03C3107A187067
S224014A6004A808F090FEBDF80A10C90307F0B6FF04A808F088FE9DF80520D10308F02EF8E1
S224014A8007A808F080FEBDF80C40E10308F02CF8324B1878022803D90320384900F02CFE19
S224014AA0374CE0690CF0B4FB07F07EFA18B10020344900F021FEE0690CF0AAFB27490A78B9
S224014AC0022A0C4603D903202F4900F015FE2378022B03D903202D4900F00EFE04A808F0FB
S224014AE052FE07F06BFA2A4807F0B4FE012007F0D9FC022007F0A2FDBDF8060007F008FB8F
S224014B0016480178022903D90320224900F0F4FD072007F0E5FB0821072007F02BFB0120B6
S224014B2007F001FC642007F00FFC012006F0ACFE20B10020184900F0DFFD02E0024B0122C4
S224014B401A600AB070BD00BF5479002058790020C0780020B0780020B4780020EE00FF1F59
S224014B605714030085140300D2140300231503006E15030040420F00E8B402008E150300A6
S224014B80B0890020A0150300BC150300DA150300D1470100E8150300001603003220002193
S224014BA0FFF7B8BE13B51648164B0178002202291A7008D928240094032013494FF4FA72BD
S224014BC00A2300F099FD4FF4FA700A21282207F00FF9044648B1282300930B494FF4FA72D7
S224014BE00A2300F0D9FD012008E008F017F908F023F908F019F9054A204614601CBD00BFCC
S224014C00EE00FF1FEC780020151603005479002010B5414B187800F02001CAB286B07ABB0A
S224014C2000213E4805F0C2FA642001F059FD01213A4805F0BBFA642001F052FD3848006851
S224014C400CF00AF8642001F04BFD002006F0FAFB08F001FE11F02EFB10F08AF810F012FBD8
S224014C60FFF7CEF9FF2104461822684611F0BEFC69462046182211F087FC2A49D0B122E09B
S224014C80294C2A4A636923F0400060614FF48071274C1162636943F4807060610A240A201F
S224014CA001F01EFD2249CA68013C42F48073CB60F5D1B5E70B781BB101201E4900F01CFD72
S224014CC00DF00AF917E00A78012A03D902201A4900F012FD04F10C00032107F07FFF03210C
S224014CE0204607F0E1FF0DF003F908F097F808F0A3F808F099F80FF0A5FA10F01DFB07F028
S224014D0035FE08F0C7FDFFF74DFF0C48092106B0BDE8104005F09ABA00F007400C3A060067
S224014D20B0890020EE00FF1F2080044000C00440C0F00F4070160300C1160300703906000F
S224014D40014B1868704700BF5479002038B51546084A0C46107028B120462946BDE83840E7
S224014D60FFF7D8BDFEF7FAF90028F5D1BDE83840FFF718BFEC78002032210022FFF7E6BF4E
S224014D80014B93ED000A70475C79002030B59D4D9D4C2A6823689A42ABB000F0DA810DF136
S224014DA00A000DF1090100900191002208A903AB06A807F09DFC954B9DF809101A68501C7E
S224014DC0186009B92B682360BDF80A2002F0700058B1039906A807F0F5FF05A904A805F0AF
S224014DE04BFE0498059908F005F8BDF80A1001F008031AB26AB1BDF92000BDF92210BDF90F
S224014E0024301890199118A80021039A1A9307F09FFF03A90AA806F08FFF014660B9BDF92E
S224014E202820BDF92A00BDF92C3018921990039A1A9318A808F07EF908F07EF805A903AA9D
S224014E4018A807F07BFD05A903AA0CA807F062FD05A903AA0FA807F067FD0C990D9841F3CD
S224014E604F120E9940F34F1307EE102A41F34F1201EE103A06EE902ADFED657AB8EEC70AC2
S224014E80F8EEC11AF8EEE62A60EE270A21EEA72A22EEA73A12A8CDED120A8DED132A8DED44
S224014EA0143AFEF705FA5B4B0C9918680A1A91110D985A689B68821A90110E9A494300FB43
S224014EC00011D01A831103FB0311B1F5803F13D95148524A03680BB91168016012680068BA
S224014EE0131A092B0BD901F03BFA4A490C9A0D980E9B0A6048608B60474A0021116048480A
S224014F00484B026819688B18474903600A689342C0F01D819B1A0360BDF96A20BDF9620072
S224014F20BDF96610BDF96E30ADF88000ADF884200C980D9AADF88210ADF8863041115311EA
S224014F400E980F9AADF88810ADF88A30411113131098119AADF88C10ADF88E3001131313B7
S224014F60ADF89010ADF89230FDF790FE00283AD02E4B93ED000A00230CA82D4A1958985819
S224014F809950401A07EE900A0433FAEEC87A0C2B07EEA70AF0D1274A24491068431C642BF6
S224014FA081ED000A136040F0D28010EE100AFCF78BF902460B462048204911F0EDF9044654
S224014FC01F49A2B248681C490AF0F2FD082801D130BFF5E7154800220260FF214FF4FA60A6
S224014FE005F072FAB3E001F09DFA00285FD115480178012901D003292AD11C20142120AAA4
S22401500053E000BFDC780020D0780020D87800200000003AC4780020B8780020FCAF00209B
S224015020B078002058790020B47800205C790020E0780020BC780020F4780020F01603008F
S224015040B0890020EC7800200000803D0000803804292CD1BDF88020BDF88230BDF88400D9
S224015060BDF88610ADF89420ADF89630BDF82020BDF82230ADF89800ADF89A10BDF82400BA
S224015080BDF81810ADF89C20ADF89E30BDF81A20BDF81C30ADF8A000ADF8A210ADF8A42064
S2240150A0ADF8A6301C20142125AAFDF7C7FCBDF98E00BDF99010BDF9922003EE900A05EEF8
S2240150C0901A00EE102A5FED204AB8EEE34AB8EEE56AF8EEC07A24EE245A26EE247A67EEC3
S2240150E0A40A15A88DED155A8DED167ACDED170AFEF7EAF8BDF98400BDF98230BDF98610AC
S224015100BDF9802002EE900A01EE103A04EE101A05EE902A1FED332AF8EEC11AB8EEE23ABB
S224015120F8EEC44AB8EEE56A61EE826A63EE023A24EE825A26EE027A1CA8CDED1C6ACDED7C
S2240151401D3A8DED1E5A8DED1F7AFEF7C3F8012000E000202BB030BD10B588B002A805A9FF
S224015160FFF7F6FA072813D11A491B4811F044FA05A8032107F032FD02A8032107F094FDDE
S224015180162407F04BFE07F057FE07F04DFE15E01249134A134B10F0010F18BF0A4610F0BF
S2240151A0020F18BF0B4610F0040F0F4808BF0146009109480D4911F0EFF804460C4B064928
S2240151C05868A2B20AF0F4FC082801D130BFF5E708B010BD25170300347900209F120300B9
S2240151E00F170300151703001C1703003C170300B089002073B5FEF703FF00F10C063146D3
S2240152000446FFF7A5FA072819D026490A78012A03D90220244900F06FFA224DFF211822E8
S224015220204611F0E3F9FEF7BDFE2E781EB101201E4900F061FA0CF04FFE012518E0FEF7D1
S224015240B1FE03210546304607F0C8FC2046032107F02AFD07F0E2FD07F0EEFD07F0E4FDC1
S224015260104B1878012803D90220114900F044FA0C4B187801281E4607D9A168009102207E
S2240152800C4994E80C0000F037FA3278012A07D96369094900930220E268236900F02CFA96
S2240152A028467CBDEE00FF1F4B1703005B1703007217030085170300A017030002682DE9F6
S2240152C0F041002A00F08780444C036925689D42C0F0818043681BB126688568AE4202D3A6
S2240152E00027476013462468C26885691F68A61A446905FB0646B6FBF7F207FB1266002465
S2240153005A6846612546954210D005F1010CBCFBF2F402FB14C44CB14FF00C0808FB0438F8
S224015320D8F80880B04501D86546ECE74FF00C0808FB053CDCF80C20B24210D9DCF810303B
S2240153401A880A809B788B70DCF80C30426923499A1A83690968B2FBF3F252182DE008FBC9
S2240153600438B61AD8F808C0BCEB020248BFD2190C2707FB053507FB04332D691C6995F896
S22401538000C02778931B774303FB0C7797FBF2F70F706778A47895F801C0AD7877436643F4
S2240153A003FB0C7703FB056397FBF2F793FBF2F28A704F7009490B685A1C4168026121B141
S2240153C0836802699A4288BF036104490B68C3600120BDE8F0810020BDE8F081FCAF0020CF
S2240153E010B5FEF711FE002304461A46E15C0133FF2918BF0122092BF8D1184801782AB9C5
S22401540031B30120164900F077F921E0012903D90220144900F070F92278134B4AB9607810
S22401542038B9A17829B9A179E27919705A70207A06E0607852081A70A278410859705008F2
S22401544098702179094BE0786279187059709A7007480849012383618B6110BDEE00FF1F55
S224015460D01803001B190300E800FF1FEB00FF1F8879002064790020044B1A78824204D05E
S22401548018700348034B01681961704760790020FCAF002088790020F7B5394F394D6946FD
S2240154A03846FFF70BFF01A904462846FFF706FF354B19780646002935D03868334A904291
S2240154C002D12B6883422ED0314B2D481A681F6827F0FF0505F580770569BD4205D91B68C9
S2240154E023F0FF0303F580730361022902D091058A0D00E0D2B2130915D1264C244A20882A
S22401550011681F4BA578ADF8000021F00F0418698DF802501034A0422ED9156825F00F0294
S22401552010321A6128E07CB11B4D9DF80010286805F07EF868689DF8011005F079F8A8687F
S2240155409DF8021005F074F87EB1134D9DF80410E86805F06DF828699DF8051005F068F8CB
S22401556068699DF8061005F063F81CB9301C18BF012003E0012001E00124D5E7FEBD00BF00
S224015580887900206479002060790020E0190300FCAF002070190300D000FF1F0C4B1A68D4
S2240155A0824207D00B4A186010681268D86000201A615861084B1A688A4207D005481960C1
S2240155C001680268D96000201A615861FFF764BF88790020FCAF002064790020124B1349AA
S2240155E01868134A134B00280CBF104608461968012907D002290AD091B90F4A0F4B1168D6
S2240156000F4A08E00C490F4B09680F4A03E00A4B0E4A19680E4B00290CBF1146194600E0D6
S2240156200649FFF7BBBF00BF8079002068180300E0190300A8790020847900209C18030039
S224015640EC170300741903007C1803004018030050190300014B1860FFF7C0BF84790020FA
S224015660014B1860FFF7BABFA8790020014B1860FFF7B4BF80790020104B984270B50446C6
S2240156800D46164602D00E48814201D1FFF7A8FE0C4B0D480D495C6045600C680A25B6FB45
S2240156A0F5F2121982609A600A680968C260DA6001611961BDE87040FFF7EEBE5418030075
S2240156C02C1803008879002064790020FCAF0020024B186808B1FFF7DFBE7047A479002087
S2240156E0014B1860704700BFA4790020014B1870704700BFAC7900200EB4F0B52449C8B052
S2240157004DAB51F8200053F8042B068801934FF480710DF11E00ADF81C6010F061FE06466A
S22401572007A810F0F1FD1B4B1A78012A2AD1F41CF11C002CC4EB010124DB132C12DD07ADCD
S2240157406B1802AA03F1100718685968154603C50833BB422A46F7D198781988A8702980C3
S224015760002006E007AB02A85918224610F01DFF01208DF81B001421382002AA133CFDF78F
S22401578073F9D5E748B0BDE8F04003B0704700BF241A0300AC7900200EB410B5C3B045AB75
S2240157A0044653F8042B02A84FF48071019310F017FE0020044902AA2346FFF79DFF43B091
S2240157C0BDE8104003B07047F4190300002200230D488118C818002101600C488018C018FB
S2240157E001600B488018C01801600A488018C0182033B3F5C07F0160EAD10432202AE6D1CF
S224015800054B002119707047A07D0020207F0020B0790020307B0020A080002038B5324D15
S2240158202C780B2C2DED028B59D8B0EB410F56DB01EE101A07EE100AF8EE416ADFED2B1AC9
S224015840F8EE477A26EEA12A80EE270AC2EE272AF7EE008AF0EE080A12EE900AB0EE688A93
S22401586000EE608AFBF730FD41EC100B12F038FA51EC100BFCF73EF838EE086A03EE100A8B
S22401588066EE033A73EE034A38EEE34A08EE084AF0EE005A35EEE45A154A164984EE057AE0
S2240158A0A300D018CA1801342C70F8EE007A27EE270A80ED007A104860EE030AC118C2EDDC
S2240158C0000A81ED007A0D4A0D4928EE488AD018CB18C0ED003A83ED008A002000E001206E
S2240158E0BDEC028B38BD00BFA0800020DB0FC940B07C0020E07C0020107D0020407D002033
S224015900707D002070B52DED068B784B1C780B2C9CB000F2E680B0EB410FC0F2E28000EE85
S224015920100A07EE101AF8EE407AF8EE479A9FED701AC9EEA70AB6EE009A60EE811A9FED90
S2240159406D8A61EE899AF7EE008A39EE690A8DED058A8DED008A8DED068A8DED018A8DED39
S224015960088A8DED038A8DED098A8DED048ACDED078ACDED028A12F0AFFBB0EE40AA39EE87
S224015980890A12F0A9FB8AEE002A02A807AA00239FED595A9FED591A62EE053A02EE015A90
S2240159A0DFED575A03EE825A62EE254ADFED556A24EE827ADFED542A22EE263A35EEE34A35
S2240159C075EE631A77EE636A72EE023A22EE226A73EEA22A46EE022A36EE280ADFED4B4A33
S2240159E012EE426A03EE420A42EE642A9FED482A74EE077A36EEA55A36EE426AC7EE800AE7
S224015A0081EE803AC5EE005A82EE801A86EE000A8DED0A8A8DED0B8A8DED138A8DED148A76
S224015A200AA9CD1813AEF11895ED017A90ED004AD2ED007A91ED015A63EE071AC1ED027A8C
S224015A4040EE841A41EE457AD5ED006AD1ED003A45EEA61A40EE637A04330C2B85ED024A38
S224015A60E0EC011AE2EC017ADAD1DDED020ADDED082A9DED033A9DED091A70EE885A38EE99
S224015A80628ADDED044A35EE832A38EE418A32EE246A78EEC88A1F4A1F4B86EE280AA000BC
S224015AA011181A180134B1EE627A80EE804AC3EE007AC4EE808A81ED004A1849C2ED007A74
S224015AC00B18174AC3ED008A164B1118074A1818F1EE411AC0ED001A81ED007A147000206A
S224015AE000E001201CB0BDEC068B70BDA0800020DB0FC940000000004290933E429093BE73
S224015B004290133E980082BE0B702D3F980002BF9800823EB07C0020E07C0020107D002077
S224015B20407D0020707D00202DE9F041364B93F8008005460024288801B207EE901A00230E
S224015B40B8EEE77A1A461946414545DADFF8CCC02E4F2F489444DCED005ADFF8C4C03E19D0
S224015B60F718944497ED006A9CED001ADFF8B4C0284E00EB040E66EE011A9E44944447EE8B
S224015B80251A9CED005A9EED002ADFF89CC03019C0189444204E45EE021AD0ED006ADCED4F
S224015BA0002ADFF888C03619F618944446EEA21AD6ED003A9CED003A43EE231A87ED007A55
S224015BC08EED006AC6ED006AC0ED001A013104322033B0EE617AB7E7B6EE000A77EE000A07
S224015BE0043410EE900AFBF76FFB41EC100B12F033F951EC100BFBF755FE202C25F8020BEA
S224015C0099D1BDE8F08100BFA0800020A07D0020207F0020B0790020307B0020B07C0020A3
S224015C20E07C0020107D0020407D0020707D00203A4B5A6910B53A4C42F480108121586197
S224015C406170374B5A7802F00400C1B20029F8D0344C0A2000F044FD0BF054FA2378012BD4
S224015C6003D902203049FFF747FD2278012A06D92E482F49027843780220FFF73DFD2749E4
S224015C802C484B6923F480244C610146FFF786FC04F000FBFEF7DEFCFFF7A2FB0120FFF747
S224015CA01FFDFDF7A3FDFCF747FFFDF7FFF8FDF7BDFFFCF7FBFAFCF727FEFEF7A9FFFDF7C9
S224015CC01FFAFEF7A7FC174A1078022803D903201949FFF711FD0020FFF702FDFCF71EFE71
S224015CE00446FCF7DFFF0443FFF750F80443FEF749F80443FCF74AFB0443FFF7CDFB0443B6
S224015D0000F038FB0443204600F05AF8044300D130BF0A49C8690BF07BFADFE720800440C6
S224015D2000400740EE00FF1F381A030000F00740501A0300E0190300821A0300B0890020DD
S224015D40064B684620F007011A698D46044901B590B20880BDE801408546704700B00B40A0
S224015D60A280002008B5084B588008480A46062119700378012B03D902200549FFF7BCFC02
S224015D80BDE80840FCF7C2BCF4AF0020EE00FF1FA51A030008B561B6022806D1064B186868
S224015DA0012100F50020FEF799FC0449C8690BF02FFA71B6012008BD04390600B0890020D1
S224015DC038B5274B19780129024642D1002840D12448254D01687F2920D82A68B2EB013FB9
S224015DE001D1013101600368180300F500200121FEF774FC68B11D4A1178012905D9194BA1
S224015E001B491A680220FFF777FC02201949FFF7A9FF14480268511C01601CE0164C296866
S224015E202068814206D90821FEF78EFC20680830206010E002245A809A801C70FCF766FC5F
S224015E400A4A1378012B06D920460C49FFF754FC01E0002038BD00F083FA012038BD00BF19
S224015E60F4AF0020A480002004390600EE00FF1FBC1A0300F01A0300B08000200D1B030065
S224015E802DE9F043A44B04461878052887B000F02B8200F065FA2378192B00F085809F49DE
S224015EA00022133B0A60062B00F20181DFE803F0042819B840587C00974B197811B101203C
S224015EC0974966E197480278012A03D902209649FFF712FC95489649002303600B60012062
S224015EE0E0E08D4C2378002B00F0FE818D490A78012A03D902208F49FFF7FEFB00218DE0F8
S224015F008548037813B101208B4942E14FF4002219681068814240F0D480884B88491A688C
S224015F200420043A10F030FB002800F0CD80C8E0794D2878821E022A02D90120814928E1C0
S224015F40D4F80230D4F8061003F50020FCF716FF022129706880D4F80200C208AA80A3E052
S224015F606D4A1378981E022802D90120764910E1D4F8026006F5002635464FF6FF70D4F803
S224015F800610AA1B8A4207D20023E95CFF2940F0A9800133082BF8D15F4B03211970588033
S224015FA022FA01F29A807FE05B4803789A1E022A02D901206549ECE065885848E9000268FB
S224015FC001F5002595420FD0564B1978012904D902205F492B46FFF78FFB5E484E4B002295
S224015FE04FF6FF71026059804C4805F1100202600022A95CFF297BD10132102AF9D181E07A
S224016000454C294610226088FCF78EFE514A608013681033D8081360A0800421217043E05C
S2240160204FF4002311681868814240F0A980434C434924680420221F10F0A6FA002840F0DB
S2240160409F80FCF7C7FE002800F0A180354D2B78012B03D902204049FFF74EFB287801284A
S22401606003D902203D49FFF747FB71B63C4B0DF116020DF1170100920191186821460290E7
S22401608008220DF11503374804F010F861B62549002800F081800A781AB133490120FFF7C1
S2240160A02BFB05201C4A1070FCF730FB1CE11D4B1978002900F0188101202C49FFF71CFB40
S2240160C012E104202A4964E016490878012803D902202849FFF710FB0F4B02221A7000224A
S2240160E05A805FE729460822FCF71EFE083546E72846211D102210F047FA002880D00320AE
S2240161001D4946E02846211DFEF7BCFA00283FF477AF022019493CE0F4AF0020A88000206A
S2240161202F1B0300EE00FF1F601B0300B0800020A4800020791B0300901B03000439060066
S22401614004000800E21B03001A1C03004E1C0300831C0300AC8000202D1D03004B1D0300E1
S224016160F0AF0020A800FF1F731D03004D1F0300761F0300C21B0300C31C0300EE1C03002B
S2240161805B4A117819B101205A49FFF7B5FA5A490420FFF7E7FDA7E09DF815500A78002DC7
S2240161A04AD1012A03D902205449FFF7A5FA71B6DFF864815248D8F800700DF116060DF18E
S2240161C01705009601950297214601220DF1150303F06CFF814661B64A4FF8690BF018F8F7
S2240161E0B9F1000F03D19DF81510032902D00020454954E771B6D8F80020009602922146C3
S224016200019504220DF115033D4803F04FFF044661B6F8690AF0FCFF1CB99DF81530042B4B
S22401622002D0002039493AE73148017801297FF638AF0220364932E7012D3FD1012A03D94C
S22401624002203449FFF758FA71B6334E334A33682B48214603F0B5FE074661B6294DE869E6
S2240162600AF0D6FF2FB100202D493A46FFF744FA17E771B60DF116030DF1170000930190AA
S22401628031681F480291082221460DF1150303F00DFF044661B6E8690AF0BAFF1CB99DF8F0
S2240162A01520042A02D000201E49F8E6104B187801287FF6F6AE02201B49F0E61AB10120C9
S2240162C01A49FFF719FA0F4D01212046FEF706FAE8690AF09DFF04F500200121FEF7FEF965
S2240162E0E8690AF095FFDCE607B0BDE8F08300BFEE00FF1F001D03009C1F0300AE1D0300B1
S224016300A800FF1FB0890020D81D03000C1E03004B1E0300731E0300F0AF0020955D010081
S2240163209E1E0300B71E0300011F0300171F030008B5084B187805280BD107490A78012ABE
S22401634003D902200549FFF7D7F9BDE8084009F089BD08BDF4AF0020EE00FF1FD61F03006D
S224016360024B03481A680260704700BFFCAF0020B88000207FB52C4B1878012850D02B490A
S2240163802B4B0A681868111A0A22514347F22F53994245D927480178022903D9032026496F
S2240163A0FFF7AAF9FFF7C4FF684603A905F0A8FA83070DD41F4C25781DB101201F49FFF7D4
S2240163C09BF91F481F49FFF7E9F8FFF765F8FCE7FEF7E8FB1B480146FFF7E0F8FCF7FAF911
S2240163E0FDF7F4FB01210A46174803F0F5FE0AF093FE0E4B19681A68501A092801D830BFB3
S224016400F9E70C4B1978012903D902200F49FFF773F9002104200A4609F048FD012000E0F8
S224016420002007B000BD00BFB4800020FCAF0020B8800020EE00FF1FFE1F03001920030024
S2240164400C180300E0190300703906004620030010B50446FFF784FF014B1C7010BD00BF0F
S224016460B480002038B5214B1D78854204463BD01870FCF773FE00B34CB1022C1DD8E5B95B
S2240164807820294604F020F8C820FF2113E04FF4FA70FF2104F018F87820214604F014F818
S2240164A04FF49670B42104F00FF87820214604F00BF8C820642104F007F80C48017871B970
S2240164C00B4D2A683AB10B4B1878012803D902200949FFF711F900202860FFF7BBF82046CB
S2240164E0BDE83840FFF7BCB838BD00BFBC800020C0800020EE00FF1F52200300014B0122AF
S2240165001A607047C4800020014B00221A607047C4800020024B1878003018BF0120704721
S224016520BC800020054B186828B905490A68101C18BF012070470120704700BFC0800020B6
S224016540C4800020054B1868016829B100F580500268002A18BF0020704700BF0C390600AD
S2240165601E4B70B51C68064604F58050026812B92546044600E0054619490B78022B03D9EB
S22401658003201849FFF7B8F828460121FEF7A6F808B114491DE012480278022A03D9032096
S2240165A01149FFF7A9F8284631461022FEF76AF808B10D490DE00A490B78022B03D9032078
S2240165C00A49FFF799F820460121FEF787F820B10649FFF7E1F8012070BD70BD0C3906002A
S2240165E0EE00FF1F8220030098200300BF2003000B4B68461A6820F007018D4601B50949CE
S22401660042F0800018600B685A1C0A6003F080FFFFF75EF8FDF77CFCBDE801408546704765
S22401662000000440FCAF0020014B18680830704714390600094B0A4A196801F108032831B8
S22401664053F8040B8B4242F8040BF9D11988054B118001221A600248704700BF14390600C8
S224016660C8800020F080002073B5174E306808B9164924E0164B1C6820680121009020464E
S224016680FEF72CF828B1134801780120D1B1124915E004F1080011492822FDF7F3FF054669
S2240166A00028F0D1009902AB4A1C43F8082D204669460822FDF7E6FF3560284602E0FFF7DC
S2240166C01BF801207CBD00BFF0800020E920030014390600EE00FF1F3F210300C8800020C2
S2240166E038B50A4B054698680AF09EFC0446074880680AF099FCA04204EB050201D99042DF
S224016700F5D391B28842F2D338BD00BFB0890020034B10B5044698680AF086FC206010BDA6
S224016720B0890020F0B52DED028B0023044689B00F4616461846E218D2ED007AF4EEC07AAA
S224016740F1EE10FAA8BF01300433202BF3D1012826DD2046082101F0ADF90022A018D0ED83
S224016760000A80EE801A08A98D180432202A05ED081AF3D19FED0D8A00250124B44210DA06
S22401678007EB44100822694601F0A6F9B4EEC80AF1EE10FAC4BFB0EE408A25460134EDE788
S2240167A00025284609B0BDEC028BF0BD00000000F8B504460F46002304F5385000F10806B5
S2240167C081688B4212DA03F1700503F1F00604EB461604EB4511301D0D1D243650F8041BF6
S2240167E0B04245F8041BF9D10133E5E7022A05D087EAE772A2EBE7726AB9F8BD0025336832
S2240168009D42F5DA05F1700204EB4210043001F0ABFF0135F3E7C2F10807002530688542F6
S22401682009DA05F1700104EB4113181D394601F0A8FF0135F2E7F8BD30B5002300F538522E
S22401684091688B4212DA03F1700403F1F00200EB441500EB4214221D291D243452F8045B27
S224016860A24241F8045BF9D10133E7E730BD00002DE9F0472DED028B91461C460A9F0E46B3
S224016880002932D103F5385304F604619A689FED1A0AFFF747FF07F10C05804604EB800AAE
S2240168A004F53850043541688E4213DA15ED018ADFED127A28EE278A0AEB462205ED018A2C
S2240168C092ED010A01F09AF938EE000A013605ED010AE5E7204639464A46C7F80080BDEC17
S2240168E0028BBDE8F04700F047B84FF6FF70BDEC028BBDE8F08700BF000048436666663F79
S224016900F0B501294FF00004146001DC1C60F0BD01251D60146800EB840696ED007AD0ED97
S224016920017AB4EEE77AF1EE10FA44BF15601C6002291FD0051D02241668043500EB860765
S22401694095ED000AD7ED000AB4EEE00AF1EE10FA02DD1E6014600AE01E6800EB860696ED27
S224016960001AB4EEC10AF1EE10FAC8BF1C6001348C42E1DBF0BD00002DE9F0432DED028B42
S2240169808BB002ACDFED328A81460E4690462746002509F5385359688D420FDA06EB850184
S2240169A0B0EE000AD1ED030A11F0F6FB10EE103A78EE808A47F8043F0135EAE700258D4237
S2240169C008DA043494ED001AC1EE281A0135C4ED001AF4E7002202AB0192029206F10C0036
S2240169E001AAFFF78DFF019C0AA800EB840111ED070A01F003F9029B0AAA02EB8300B0EE4A
S224016A00408A10ED070A01F0F9F8F2EE0E0AF0EE408AB0EEC80A11F07BF878EE680AB0EEBC
S224016A20C00A80EE808A07210A4B01FB084803EB8802D2ED007AB4EE678AF1EE10FA54BF05
S224016A40204600200BB0BDEC028BBDE8F08300BF00000000682103002DE9F0418D6800F525
S224016A603853072D5D6002DD0020BDE8F081CC68802C9C60F8DC0022AA4211DA530201EB95
S224016A80030CC7180023A34208DA9E0007EB0608664401333669C8F80460F4E70132EBE7F9
S224016AA00022A24213DA55014E190023451906EB030C0CF5616CEF1807F5F057DCF800C0F3
S224016AC00433202BC7F804C0F1D10132E9E7496801600120BDE8F081002101604160816099
S224016AE01C220C300FF082BD38B501230446036000F5385000254560856004EB4521081D74
S224016B004FF40072002101350FF070FD072DF4D1002505F1700204EB4213181D0021202295
S224016B200FF064FD05F1F00004EB4011081D2022002101350FF05AFD802DEAD138BD10B593
S224016B40044698B111B14FF0FF33436004F1080004F596541C3401F080F9204601F08CFC4D
S224016B602046002101F0FBFC002010BD012010BD38B505460C46B9B101F10800102219216B
S224016B8001F081F990B104F596520A20691E1C3201F087FC60B920460121FFF7D0FF002861
S224016BA014BF0420002038BD012038BD022038BD032038BD32B14B1E012B05D882E80300BC
S224016BC000207047012070470220704710B5B8B1002915DB002A13DB8A4211DA041F0023CB
S224016BE010460434D4ED007AF4EEC07AF1EE10FAC4BFB0EE670A184601338B42F1DB10BD37
S224016C004FF0FF3010BD2DE9F043ADF2FC7D8146DDF8184888461546002C58D0002950D010
S224016C20002A4ED004F59F5211686A6801318A4247D1002B45D01E68009659689A68102369
S224016C4001F0E4F8064600283BD104F108073846494601F02AF9384601F0B8F9182828DD57
S224016C60384619216EAA01F0AEFB50BB6EA841460AAA00F0DBF820BB0AA8294603AA00F0EC
S224016C8075F8F0B96968002203A8B6EE000AFFF79DFF011E15DB04F596541C34204601F061
S224016CA01AFC204601F071FC431C13D040EAE07011E004F596501C30314601F00CFC304636
S224016CC009E004F596501C30002101F004FC4FF0FF3000E000200DF57F7D0DF5806DBDE888
S224016CE0F0832DE9F04192B00D461A9C9846002C36D06368591E01292CD85ABB06460DF1AA
S224016D00080E00F1200230687168774603C708369642BE46F7D10AAF05F120022868696838
S224016D203E4603C6083595423746F7D102A821681A4601F048FD68B90AA894E8060001F098
S224016D4042FD38B9009402A84146189A199BFFF75AFF07E004F596501C30002101F0BBFBA9
S224016D604FF0FF3012B0BDE8F08100002DE9F04180462DED028B0C4600293DD08B68002B6D
S224016D803AD0C868C0B39FED1F8A1646174600256268954223DA2268A36802FB05F1404681
S224016DA003EB810100F0AEFEE06887ED000A00EB8502D2ED000A30EE201A0135A7EC011A84
S224016DC0B1EE410A11F0E0F9F7EE001A30EE212AC1EE822A47ED012A38EE228AD8E7002115
S224016DE0914207DAD6ED007A87EE880A0131A6EC010AF5E7002000E00120BDEC028BBDE8EE
S224016E00F08100BF0000000048B10523642280E80C000449044BC160836000207047012089
S224016E20704700BFFC2903002C2203002DE9F0412DED028B8046E4B016460C4600293FD02F
S224016E40CB68002B3CD00869002839D08968642938DC6268B2F5C87F34DCADF104070025F8
S224016E60A3689D4217DA6368E16803FB05F2404601EB82011A4694ED008A00F0AFFFB1EE8B
S224016E80488A28EE000A11F07FF910EE100A013547F8040FE4E7043E0025A26895420DDAE7
S224016EA0236902FB05F1684603EB810100F02AFE10EE100A013546F8040FEEE7002002E0A1
S224016EC0012000E0022064B0BDEC028BBDE8F08160B1074B4FF4C87103604160054B0649A7
S224016EE0C36064228260016100207047012070470AD7233B102A0300109B050038B105498D
S224016F00054A4160102303608260002070470120704700BF503706009037060070B50024F2
S224016F2005462026046044608460C4622146324600F10C000FF05AFB214650222C636C6341
S224016F40AC6305F13C000FF051FB05F1B40021463246BDE870400FF049BB002310B50021B5
S224016F600446C0F88C30C0F89030202200F194000FF03CFB04F1D4003221082200F083FF20
S224016F802046BDE81040FFF7C9BF0000144B33F81000642812D005D801280FD017D32A28E9
S224016FA009D119E0B0F5987F0ED04FF6FF72904212D0652805D0DFED0B7A0AE0DFED0A7A07
S224016FC007E0DFED0A7A04E0F6EE007A01E0F7EE007A20EE270A70479FED020A704700BFEE
S224016FE0D0370600000000009A99193F6666663F70B506462DED028B10460C461546FFF771
S224017000C5FF08213046B0EE408A00F053FDB4EEC80AF1EE10FA02D90123236000E000257B
S22401702004F1D40000F019FF2846BDEC028B70BD70B59FED150A05460C4601F006FC134BEA
S224017040D3ED006A03281DDDF0EE667A00234FF0FF3254F823109E0051B1A91991ED007AB1
S224017060B4EEE77AF1EE10FA44BF1A46F0EE477A0133082BEDD1531C04D0002144F8221025
S2240170800138DFE770BD00BFCDCCCC3E2402FF1FF0B501F59C532DED028B0746D86989B020
S2240170A00C46154610B901F1B4000AE00021202268460FF09BFA04F1D400694601F0FBF8C3
S2240170C06846082100F0F6FC04F1D40630463946B0EE408A00F0E9FE0821384600F0EAFC71
S2240170E030EE480ADFED1C7A80EE088AB4EEE78AF1EE10FA08DD626B184B33F81200002842
S22401710014BF2846002022E0012104F59C5761602022002168460FF069FA04F59D50FA697B
S2240171204168BB69052AA8BF05228F1A781CC11891FBF3F703FB171130466B4601F0FEF8FF
S224017140684604F10C01FFF773FFE062284609B0BDEC028BF0BD00BFCDCCCC3DD037060057
S2240171602DE9F0432DED028B1F469368556B89B08046894614462BB1AF4203D017B1002049
S22401718090603D46002609EB060191ED000ADFED327ADFED320A20EE270A10F0B9FCDFED8D
S2240171A0300A10F0CEFC08AA93190436202E03ED080AE8D12B4830F81510DFED2B0ADFED97
S2240171C02B8A012918BFF0EE608A00221646134608EB020008A990ED007A881810ED081AF8
S2240171E0A118B4EEC17AC868F1EE10FA98BF013328B1B4EEC17AF1EE10FA98BF01360432EC
S224017200202AE5D1082B1DD00821404600F052FC082104F1B400B0EE408A00F04BFC70EE8C
S224017220281AB4EEE18AF1EE10FA0ADD40F2E7339D4206D00025012125606560A1603D4613
S22401724004E01EB1002525606560A560284609B0BDEC028BBDE8F0836666A63F0000484251
S2240172600000F042D0370600000048430000AA432DE9F0411D468B6B0C46174603F11301FA
S224017280142291FBF2FC02FB1C1104EB810204EB83032DED028BD2F83CC0616BDD63694BFA
S2240172A033F8112084B00646DAB933F81510C1B133F81C308B4210D1082100F0FBFB08213A
S2240172C004F19400B0EE408A00F0F4FBB4EEC08AF1EE10FA98BF002500E0154600202060AC
S2240172E0606022683AB92A463046214694ED230AFFF77EFE0546216839B163682BB92A4601
S22401730030462146FFF7C4FE0546606830B3A26B1423103292FBF3F103FB1122052100236B
S22401732004EB8200C06BA84208BF01330132142092FBF0FC013900FB1C22F1D1042BD8BFEB
S22401734000254048636B30F813203AB12B46304604F194012246FFF703FF0546394931F89F
S224017360153033B9606B31F8102012B10A2323630BE0236B002B08DD581E20632DB1A56BCC
S2240173800E3504EB85020025556031F81510B1F5987F01D001293DD1606B2A4A32F8103097
S2240173A0002B37D13846694601F026F990BB4FF00F080746684601F023F90028C8BF0137C7
S2240173C0B8F1010802D1DFB90A2703E00028F1DAF9E720B9684601F013F9013FF9D10028ED
S2240173E018DD4FF019080127684601F009F90028C8BF0137B8F1010809D1023F022F09D8A3
S224017400A56B0E3504EB850100254D6002E00028EADAF2E7A06B1423421C92FBF3F103FB16
S2240174201120A06306F12003B43456F8042B9E4244F8042BF9D1284604B0BDEC028BBDE881
S224017440F08100BFD037060010B54B210446082200F019FD04F5975204F59651002342F81F
S224017460043B4B618B61CB6132200121BDE8104001F017B800F59753012210B51A6000F5A4
S2240174809653DC690A1BB2F5FA7F01D90024DC61DC6954B14A2A08D95C6934B919245C61ED
S2240174A01424B2FBF4F201329A6100F59650C16110BD10B500F59754201D216801F00BF8A4
S2240174C00023236010BD00F0F0BC70B50C460646154610463146A2000FF067F8022C19DD88
S2240174E033460121621E0433914213DA13ED017AD3ED007AD3ED010A37EE270AF0EE081A9E
S22401750030EE201A013181EE212A12EE100A45F8040FE7E770BD2DE9F04788B08046174614
